{
  "contractName": "DeedRegistry",
  "abi": [
    {
      "constant": true,
      "inputs": [
        {
          "name": "fileChecksum",
          "type": "bytes1[256]"
        }
      ],
      "name": "deedExists",
      "outputs": [
        {
          "name": "",
          "type": "bool"
        }
      ],
      "payable": false,
      "stateMutability": "view",
      "type": "function"
    },
    {
      "constant": false,
      "inputs": [
        {
          "name": "ownerAddress",
          "type": "address"
        },
        {
          "name": "ownerName",
          "type": "string"
        },
        {
          "name": "ownerDOB",
          "type": "int64"
        },
        {
          "name": "fileName",
          "type": "string"
        },
        {
          "name": "filesize",
          "type": "uint256"
        },
        {
          "name": "fileDescription",
          "type": "string"
        },
        {
          "name": "fileChecksum",
          "type": "bytes1[256]"
        }
      ],
      "name": "createDeed",
      "outputs": [
        {
          "name": "",
          "type": "bool"
        }
      ],
      "payable": true,
      "stateMutability": "payable",
      "type": "function"
    },
    {
      "constant": false,
      "inputs": [
        {
          "name": "registrarAddress",
          "type": "address"
        }
      ],
      "name": "addRegistrar",
      "outputs": [],
      "payable": false,
      "stateMutability": "nonpayable",
      "type": "function"
    },
    {
      "constant": false,
      "inputs": [
        {
          "name": "registrarAddress",
          "type": "address"
        }
      ],
      "name": "removeRegistrar",
      "outputs": [],
      "payable": false,
      "stateMutability": "nonpayable",
      "type": "function"
    },
    {
      "constant": true,
      "inputs": [
        {
          "name": "registrarAddress",
          "type": "address"
        }
      ],
      "name": "isRegistrar",
      "outputs": [
        {
          "name": "",
          "type": "bool"
        }
      ],
      "payable": false,
      "stateMutability": "view",
      "type": "function"
    },
    {
      "inputs": [],
      "payable": false,
      "stateMutability": "nonpayable",
      "type": "constructor"
    }
  ],
  "bytecode": "0x6060604052341561000f57600080fd5b60018060003373ffffffffffffffffffffffffffffffffffffffff1673ffffffffffffffffffffffffffffffffffffffff16815260200190815260200160002060006101000a81548160ff021916908315150217905550610bb0806100756000396000f30060606040526004361061006d576000357c0100000000000000000000000000000000000000000000000000000000900463ffffffff1680637bc42bbf146100725780639e5bcc80146100d3578063af92a69314610172578063ba904eed146101ab578063d5db72eb146101e4575b600080fd5b341561007d57600080fd5b6100b960048080612000019061010080602002604051908101604052809291908261010060200280828437820191505050505091905050610235565b604051808215151515815260200191505060405180910390f35b610158600480803573ffffffffffffffffffffffffffffffffffffffff16906020019091908035906020019082018035906020019190919290803560070b90602001909190803590602001908201803590602001919091929080359060200190919080359060200190820180359060200191909192908061200001909190505061028b565b604051808215151515815260200191505060405180910390f35b341561017d57600080fd5b6101a9600480803573ffffffffffffffffffffffffffffffffffffffff16906020019091905050610541565b005b34156101b657600080fd5b6101e2600480803573ffffffffffffffffffffffffffffffffffffffff169060200190919050506105f3565b005b34156101ef57600080fd5b61021b600480803573ffffffffffffffffffffffffffffffffffffffff1690602001909190505061069d565b604051808215151515815260200191505060405180910390f35b60008082604051808261010060200280838360005b8381101561026557808201518184015260208101905061024a565b505050509050019150506040518091039020905061028381846106f3565b915050919050565b600080600061029861093b565b600160003373ffffffffffffffffffffffffffffffffffffffff1673ffffffffffffffffffffffffffffffffffffffff16815260200190815260200160002060009054906101000a900460ff1615156102f057600080fd5b8460405180826101006020028082843782019150509150506040518091039020925061034383866101008060200260405190810160405280929190826101006020028082843782019150505050506106f3565b15151561034f57600080fd5b8d8d8d8d8d8d8d8d8d8b43604051808c73ffffffffffffffffffffffffffffffffffffffff1673ffffffffffffffffffffffffffffffffffffffff166c010000000000000000000000000281526014018b8b8082843782019150508960070b60070b78010000000000000000000000000000000000000000000000000281526008018888808284378201915050868152602001858580828437820191505083600019166000191681526020018281526020019b505050505050505050505050604051809103902091506060604051908101604052808f73ffffffffffffffffffffffffffffffffffffffff16815260200183600019168152602001866101008060200260405190810160405280929190826101006020028082843782019150505050508152509050600080846000191660001916815260200190815260200160002080548060010182816104a3919061097d565b91600052602060002090600a0201600083909190915060008201518160000160006101000a81548173ffffffffffffffffffffffffffffffffffffffff021916908373ffffffffffffffffffffffffffffffffffffffff16021790555060208201518160010190600019169055604082015181600201906101006105289291906109af565b50505050600193505050509a9950505050505050505050565b600160003373ffffffffffffffffffffffffffffffffffffffff1673ffffffffffffffffffffffffffffffffffffffff16815260200190815260200160002060009054906101000a900460ff16151561059957600080fd5b60018060008373ffffffffffffffffffffffffffffffffffffffff1673ffffffffffffffffffffffffffffffffffffffff16815260200190815260200160002060006101000a81548160ff02191690831515021790555050565b600160003373ffffffffffffffffffffffffffffffffffffffff1673ffffffffffffffffffffffffffffffffffffffff16815260200190815260200160002060009054906101000a900460ff16151561064b57600080fd5b600160008273ffffffffffffffffffffffffffffffffffffffff1673ffffffffffffffffffffffffffffffffffffffff16815260200190815260200160002060006101000a81549060ff021916905550565b6000600160008373ffffffffffffffffffffffffffffffffffffffff1673ffffffffffffffffffffffffffffffffffffffff16815260200190815260200160002060009054906101000a900460ff169050919050565b600080600061070061093b565b60008060008860001916600019168152602001908152602001600020935060008480549050111561092e57600092505b838054905083101561092d5760019450838381548110151561074e57fe5b90600052602060002090600a0201606060405190810160405290816000820160009054906101000a900473ffffffffffffffffffffffffffffffffffffffff1673ffffffffffffffffffffffffffffffffffffffff1673ffffffffffffffffffffffffffffffffffffffff168152602001600182015460001916600019168152602001600282016101008060200260405190810160405280929190826101008015610872576020028201916000905b82829054906101000a90047f0100000000000000000000000000000000000000000000000000000000000000027effffffffffffffffffffffffffffffffffffffffffffffffffffffffffffff1916815260200190600101906020826000010492830192600103820291508084116107fd5790505b5050505050815250509150600090505b6101008110156109175785816101008110151561089b57fe5b60200201517effffffffffffffffffffffffffffffffffffffffffffffffffffffffffffff1916826040015182610100811015156108d557fe5b60200201517effffffffffffffffffffffffffffffffffffffffffffffffffffffffffffff191614151561090c5760009450610917565b806001019050610882565b84156109225761092d565b826001019250610730565b5b8494505050505092915050565b61204060405190810160405280600073ffffffffffffffffffffffffffffffffffffffff16815260200160008019168152602001610977610a6a565b81525090565b8154818355818115116109aa57600a0281600a0283600052602060002091820191016109a99190610ab6565b5b505050565b82610100601f01602090048101928215610a595791602002820160005b83821115610a2a57835183826101000a81548160ff02191690837f01000000000000000000000000000000000000000000000000000000000000009004021790555092602001926001016020816000010492830192600103026109cc565b8015610a575782816101000a81549060ff0219169055600101602081600001049283019260010302610a2a565b505b509050610a669190610b14565b5090565b61200060405190810160405280610100905b60007effffffffffffffffffffffffffffffffffffffffffffffffffffffffffffff1916815260200190600190039081610a7c5790505090565b610b1191905b80821115610b0d57600080820160006101000a81549073ffffffffffffffffffffffffffffffffffffffff02191690556001820160009055600282016000610b049190610b44565b50600a01610abc565b5090565b90565b610b4191905b80821115610b3d57600081816101000a81549060ff021916905550600101610b1a565b5090565b90565b5080610100601f01602090040190610b5c9190610b5f565b50565b610b8191905b80821115610b7d576000816000905550600101610b65565b5090565b905600a165627a7a7230582005043005c41a8c0694fc836a551b905d7e98106ffd56fb7bc6d7766ef4f073740029",
  "source": "pragma solidity ^0.4.16;\r\n\r\ncontract DeedRegistry {\r\n\r\n    function DeedRegistry() public {\r\n        registrars[msg.sender] = true;\r\n    }\r\n\r\n    struct Deed {\r\n        address owner;\r\n        bytes32 identityHash;\r\n        byte[256] fileChecksum;         \t// checksum of the file this deed concerns\r\n    }\r\n    \r\n    mapping(bytes32 => Deed[]) registry;    // Sha3 hash of the larger hash\r\n    mapping(address => bool) registrars;    // The authorised addresses for adding elements to the registry\r\n    \r\n    \r\n    // Registrar management =========================================\r\n    function isRegistrar(address registrarAddress) public view returns (bool) {\r\n        return registrars[registrarAddress];\r\n    }\r\n\t\r\n    function addRegistrar(address registrarAddress) public {\r\n        require(registrars[msg.sender]);\r\n        registrars[registrarAddress] = true;\r\n    }\r\n    \r\n    function removeRegistrar(address registrarAddress) public {\r\n        require(registrars[msg.sender]);\r\n        delete registrars[registrarAddress];\r\n    }\r\n    \r\n    // Deed management ==============================================\r\n    \r\n    // Create a new deed with the given fingerprint\r\n    function createDeed(\r\n        address ownerAddress,\r\n        string ownerName, \r\n        int64 ownerDOB,\r\n        string fileName,\r\n        uint filesize,\r\n        string fileDescription,\r\n        byte[256] fileChecksum) external payable returns(bool)\r\n    {\r\n        // Require that the caller is an approved registrar\r\n        require(registrars[msg.sender]);    \r\n        \r\n        // Generate the bucket hash of the deed\r\n        bytes32 fileHash = keccak256(fileChecksum);\r\n        \r\n        // Check for any duplicates in the mapping\r\n        require(!duplicateHashExists(fileHash, fileChecksum));\r\n        \r\n        // Now we create an block number dependent identity hash. The owner of the deed then should be able to reconstruct\r\n        // the hash data from the contract call\r\n        bytes32 identityHash = keccak256(ownerAddress, ownerName, ownerDOB, fileName, filesize, fileDescription, fileHash, block.number);\r\n        \r\n        Deed memory newDeed = Deed(ownerAddress, identityHash, fileChecksum);\r\n        registry[fileHash].push(newDeed);\r\n        \r\n        return true;\r\n    }\r\n    \r\n    function deedExists(byte[256] fileChecksum) public view returns(bool) {\r\n        bytes32 fileHash = keccak256(fileChecksum);\r\n        return duplicateHashExists(fileHash, fileChecksum);\r\n    }\r\n    \r\n    function duplicateHashExists(bytes32 hash, byte[256] fileChecksum) internal view returns (bool duplicateFound) {\r\n        Deed[] storage bucket = registry[hash];\r\n        if ( bucket.length > 0) {\r\n            for (uint i = 0; i < bucket.length; ++i) {\r\n                duplicateFound = true;\r\n                Deed memory deed = bucket[i];\r\n                for (uint j = 0; j < 256; ++j) {\r\n                    if (deed.fileChecksum[j] != fileChecksum[j]) {\r\n                        duplicateFound = false;\r\n                        break;\r\n                    }\r\n                }\r\n                if (duplicateFound) {\r\n                    break;\r\n                }\r\n            }\r\n        }\r\n        return duplicateFound;\r\n    }\r\n}\r\n",
  "sourcePath": "/mnt/c/src/cowtrix/indeed/contracts/DeedRegistry.sol",
  "compiler": {
    "name": "solc",
    "version": "0.4.18+commit.9cf6e910.Emscripten.clang"
  },
  "schemaVersion": "1.0.1",
  "updatedAt": "2018-01-25T04:17:45.851Z"
}