{
  "contractName": "DeedRegistry",
  "abi": [
    {
      "constant": true,
      "inputs": [
        {
          "name": "fileChecksum",
          "type": "bytes1[256]"
        }
      ],
      "name": "deedExists",
      "outputs": [
        {
          "name": "",
          "type": "bool"
        }
      ],
      "payable": false,
      "stateMutability": "view",
      "type": "function"
    },
    {
      "constant": false,
      "inputs": [
        {
          "name": "registrarAddress",
          "type": "address"
        }
      ],
      "name": "addRegistrar",
      "outputs": [],
      "payable": false,
      "stateMutability": "nonpayable",
      "type": "function"
    },
    {
      "constant": false,
      "inputs": [
        {
          "name": "registrarAddress",
          "type": "address"
        }
      ],
      "name": "removeRegistrar",
      "outputs": [],
      "payable": false,
      "stateMutability": "nonpayable",
      "type": "function"
    },
    {
      "constant": false,
      "inputs": [
        {
          "name": "ownerAddress",
          "type": "address"
        },
        {
          "name": "ownerName",
          "type": "string"
        },
        {
          "name": "ownerDOB",
          "type": "int64"
        },
        {
          "name": "fileName",
          "type": "string"
        },
        {
          "name": "filesize",
          "type": "uint128"
        },
        {
          "name": "fileDescription",
          "type": "string"
        },
        {
          "name": "fileChecksum",
          "type": "bytes1[256]"
        }
      ],
      "name": "createDeed",
      "outputs": [
        {
          "name": "",
          "type": "uint256"
        }
      ],
      "payable": true,
      "stateMutability": "payable",
      "type": "function"
    }
  ],
  "bytecode": "0x6060604052341561000f57600080fd5b610c968061001e6000396000f300606060405260043610610062576000357c0100000000000000000000000000000000000000000000000000000000900463ffffffff1680637bc42bbf14610067578063af92a693146100c8578063ba904eed14610101578063fa94d1ea1461013a575b600080fd5b341561007257600080fd5b6100ae6004808061200001906101008060200260405190810160405280929190826101006020028082843782019150505050509190505061029b565b604051808215151515815260200191505060405180910390f35b34156100d357600080fd5b6100ff600480803573ffffffffffffffffffffffffffffffffffffffff169060200190919050506102f1565b005b341561010c57600080fd5b610138600480803573ffffffffffffffffffffffffffffffffffffffff169060200190919050506103a3565b005b610285600480803573ffffffffffffffffffffffffffffffffffffffff1690602001909190803590602001908201803590602001908080601f0160208091040260200160405190810160405280939291908181526020018383808284378201915050505050509190803560070b90602001909190803590602001908201803590602001908080601f016020809104026020016040519081016040528093929190818152602001838380828437820191505050505050919080356fffffffffffffffffffffffffffffffff1690602001909190803590602001908201803590602001908080601f01602080910402602001604051908101604052809392919081815260200183838082843782019150505050505091908061200001906101008060200260405190810160405280929190826101006020028082843782019150505050509190505061044d565b6040518082815260200191505060405180910390f35b60008082604051808261010060200280838360005b838110156102cb5780820151818401526020810190506102b0565b50505050905001915050604051809103902090506102e981846107d9565b915050919050565b600160003373ffffffffffffffffffffffffffffffffffffffff1673ffffffffffffffffffffffffffffffffffffffff16815260200190815260200160002060009054906101000a900460ff16151561034957600080fd5b60018060008373ffffffffffffffffffffffffffffffffffffffff1673ffffffffffffffffffffffffffffffffffffffff16815260200190815260200160002060006101000a81548160ff02191690831515021790555050565b600160003373ffffffffffffffffffffffffffffffffffffffff1673ffffffffffffffffffffffffffffffffffffffff16815260200190815260200160002060009054906101000a900460ff1615156103fb57600080fd5b600160008273ffffffffffffffffffffffffffffffffffffffff1673ffffffffffffffffffffffffffffffffffffffff16815260200190815260200160002060006101000a81549060ff021916905550565b600080600061045a610a21565b600160003373ffffffffffffffffffffffffffffffffffffffff1673ffffffffffffffffffffffffffffffffffffffff16815260200190815260200160002060009054906101000a900460ff1615156104b257600080fd5b84604051808261010060200280838360005b838110156104df5780820151818401526020810190506104c4565b50505050905001915050604051809103902092506104fd83866107d9565b15151561050957600080fd5b8a8a8a8a8a8a8843604051808973ffffffffffffffffffffffffffffffffffffffff1673ffffffffffffffffffffffffffffffffffffffff166c0100000000000000000000000002815260140188805190602001908083835b6020831015156105875780518252602082019150602081019050602083039250610562565b6001836020036101000a0380198251168184511680821785525050505050509050018760070b60070b780100000000000000000000000000000000000000000000000002815260080186805190602001908083835b60208310151561060157805182526020820191506020810190506020830392506105dc565b6001836020036101000a038019825116818451168082178552505050505050905001856fffffffffffffffffffffffffffffffff166fffffffffffffffffffffffffffffffff1670010000000000000000000000000000000002815260100184805190602001908083835b602083101515610691578051825260208201915060208101905060208303925061066c565b6001836020036101000a038019825116818451168082178552505050505050905001836000191660001916815260200182815260200198505050505050505050604051809103902091506060604051908101604052808c73ffffffffffffffffffffffffffffffffffffffff168152602001836000191681526020018681525090506000808460001916600019168152602001908152602001600020805480600101828161073f9190610a63565b91600052602060002090600a0201600083909190915060008201518160000160006101000a81548173ffffffffffffffffffffffffffffffffffffffff021916908373ffffffffffffffffffffffffffffffffffffffff16021790555060208201518160010190600019169055604082015181600201906101006107c4929190610a95565b50505050439350505050979650505050505050565b60008060006107e6610a21565b600080600088600019166000191681526020019081526020016000209350600084805490501115610a1457600092505b8380549050831015610a135760019450838381548110151561083457fe5b90600052602060002090600a0201606060405190810160405290816000820160009054906101000a900473ffffffffffffffffffffffffffffffffffffffff1673ffffffffffffffffffffffffffffffffffffffff1673ffffffffffffffffffffffffffffffffffffffff168152602001600182015460001916600019168152602001600282016101008060200260405190810160405280929190826101008015610958576020028201916000905b82829054906101000a90047f0100000000000000000000000000000000000000000000000000000000000000027effffffffffffffffffffffffffffffffffffffffffffffffffffffffffffff1916815260200190600101906020826000010492830192600103820291508084116108e35790505b5050505050815250509150600090505b6101008110156109fd5785816101008110151561098157fe5b60200201517effffffffffffffffffffffffffffffffffffffffffffffffffffffffffffff1916826040015182610100811015156109bb57fe5b60200201517effffffffffffffffffffffffffffffffffffffffffffffffffffffffffffff19161415156109f257600094506109fd565b806001019050610968565b8415610a0857610a13565b826001019250610816565b5b8494505050505092915050565b61204060405190810160405280600073ffffffffffffffffffffffffffffffffffffffff16815260200160008019168152602001610a5d610b50565b81525090565b815481835581811511610a9057600a0281600a028360005260206000209182019101610a8f9190610b9c565b5b505050565b82610100601f01602090048101928215610b3f5791602002820160005b83821115610b1057835183826101000a81548160ff02191690837f0100000000000000000000000000000000000000000000000000000000000000900402179055509260200192600101602081600001049283019260010302610ab2565b8015610b3d5782816101000a81549060ff0219169055600101602081600001049283019260010302610b10565b505b509050610b4c9190610bfa565b5090565b61200060405190810160405280610100905b60007effffffffffffffffffffffffffffffffffffffffffffffffffffffffffffff1916815260200190600190039081610b625790505090565b610bf791905b80821115610bf357600080820160006101000a81549073ffffffffffffffffffffffffffffffffffffffff02191690556001820160009055600282016000610bea9190610c2a565b50600a01610ba2565b5090565b90565b610c2791905b80821115610c2357600081816101000a81549060ff021916905550600101610c00565b5090565b90565b5080610100601f01602090040190610c429190610c45565b50565b610c6791905b80821115610c63576000816000905550600101610c4b565b5090565b905600a165627a7a72305820577981d4f7ace515c977be0b17e777d591f3386817388d25368bc8ba3a6ef7760029",
  "source": "pragma solidity ^0.4.16;\r\n\r\ncontract DeedRegistry \r\n{\r\n    struct Deed \r\n    {\r\n        address owner;\r\n        bytes32 identityHash;\r\n        byte[256] fileChecksum;         // checksum of the file this deed concerns\r\n    }\r\n    \r\n    mapping(bytes32 => Deed[]) registry;        // Sha3 hash of the larger hash\r\n    mapping(address => bool) registrars;        // The authorised addresses for adding elements to the registry\r\n    \r\n    // Registrar management =========================================\r\n    \r\n    function addRegistrar(address registrarAddress) public\r\n    {\r\n        require(registrars[msg.sender]);\r\n        registrars[registrarAddress] = true;\r\n    }\r\n    \r\n    function removeRegistrar(address registrarAddress) public\r\n    {\r\n        require(registrars[msg.sender]);\r\n        delete registrars[registrarAddress];\r\n    }\r\n    \r\n    // Deed management ==============================================\r\n    \r\n    // Create a new deed with the given fingerprint\r\n    function createDeed(\r\n        address ownerAddress,\r\n        string ownerName, \r\n        int64 ownerDOB,\r\n        string fileName,\r\n        uint128 filesize,\r\n        string fileDescription,\r\n        byte[256] fileChecksum) public payable returns(uint)\r\n    {\r\n        // Require that the caller is an approved registrar\r\n        require(registrars[msg.sender]);    \r\n        \r\n        // Generate the bucket hash of the deed\r\n        bytes32 fileHash = keccak256(fileChecksum);\r\n        \r\n        // Check for any duplicates in the mapping\r\n        require(!duplicateHashExists(fileHash, fileChecksum));\r\n        \r\n        // Now we create an block number dependent identity hash. The owner of the deed then should be able to reconstruct\r\n        // the hash data from the contract call\r\n        bytes32 identityHash = keccak256(ownerAddress, ownerName, ownerDOB, fileName, filesize, fileDescription, fileHash, block.number);\r\n        \r\n        Deed memory newDeed = Deed(ownerAddress, identityHash, fileChecksum);\r\n        registry[fileHash].push(newDeed);\r\n        \r\n        return block.number;\r\n    }\r\n    \r\n    function deedExists(byte[256] fileChecksum) public view returns(bool)\r\n    {\r\n        bytes32 fileHash = keccak256(fileChecksum);\r\n        return duplicateHashExists(fileHash, fileChecksum);\r\n    }\r\n    \r\n    function duplicateHashExists(bytes32 hash, byte[256] fileChecksum) internal view returns (bool duplicateFound)\r\n    {\r\n        Deed[] storage bucket = registry[hash];\r\n        if(bucket.length > 0)\r\n        {\r\n            for(uint i = 0; i < bucket.length; ++i)\r\n            {\r\n                duplicateFound = true;\r\n                Deed memory deed = bucket[i];\r\n                for(uint j = 0; j < 256; ++j)\r\n                {\r\n                    if(deed.fileChecksum[j] != fileChecksum[j])\r\n                    {\r\n                        duplicateFound = false;\r\n                        break;\r\n                    }\r\n                }\r\n                if(duplicateFound)\r\n                {\r\n                    break;\r\n                }\r\n            }\r\n        }\r\n        return duplicateFound;\r\n    }\r\n}\r\n",
  "sourcePath": "G:\\Ethereum\\Indeed\\contracts\\DeedRegistry.sol",
  "compiler": {
    "name": "solc",
    "version": "0.4.18+commit.9cf6e910.Emscripten.clang"
  },
  "schemaVersion": "1.0.1",
  "updatedAt": "2018-01-21T04:40:15.320Z"
}