{
  "contractName": "DeedRegistry",
  "abi": [
    {
      "inputs": [],
      "payable": false,
      "stateMutability": "nonpayable",
      "type": "constructor"
    },
    {
      "constant": false,
      "inputs": [
        {
          "name": "ownerName",
          "type": "string"
        },
        {
          "name": "fileName",
          "type": "string"
        },
        {
          "name": "fileDescription",
          "type": "string"
        },
        {
          "name": "fileChecksum",
          "type": "bytes1[256]"
        }
      ],
      "name": "createDeed",
      "outputs": [
        {
          "name": "",
          "type": "uint256"
        }
      ],
      "payable": true,
      "stateMutability": "payable",
      "type": "function"
    },
    {
      "constant": true,
      "inputs": [
        {
          "name": "ownerAddress",
          "type": "address"
        },
        {
          "name": "ownerName",
          "type": "string"
        },
        {
          "name": "fileName",
          "type": "string"
        },
        {
          "name": "fileDescription",
          "type": "string"
        },
        {
          "name": "fileChecksum",
          "type": "bytes1[256]"
        }
      ],
      "name": "proveDeed",
      "outputs": [
        {
          "name": "",
          "type": "uint256"
        }
      ],
      "payable": false,
      "stateMutability": "view",
      "type": "function"
    }
  ],
  "bytecode": "0x608060405234801561001057600080fd5b506109c7806100206000396000f30060806040526004361061004b5763ffffffff7c01000000000000000000000000000000000000000000000000000000006000350416637823d42b811461005057806386f15e271461017a575b600080fd5b34801561005c57600080fd5b5060408051602060046024803582810135601f810185900485028601850190965285855261016895833573ffffffffffffffffffffffffffffffffffffffff1695369560449491939091019190819084018382808284375050604080516020601f89358b018035918201839004830284018301909452808352979a99988101979196509182019450925082915084018382808284375050604080516020601f89358b018035918201839004830284018301909452808352979a99988101979196509182019450925082915084018382808284375050604080516120008181019092529598979681810196955093506101009250849150839080828437509396506101a795505050505050565b60408051918252519081900360200190f35b61016860246004803582810192908201359181358083019290820135916044359182019101356064610279565b600080600083604051602001808261010060200280838360005b838110156101d95781810151838201526020016101c1565b505050509050019150506040516020818303038152906040526040518082805190602001908083835b602083106102215780518252601f199092019160209182019101610202565b6001836020036101000a0380198251168184511680821785525050505050509050019150506040518091039020915061025d88888888866104ec565b9050610269818561068f565b6060015198975050505050505050565b600080600080610287610879565b604051339450869060200180826120008082843782019150509150506040516020818303038152906040526040518082805190602001908083835b602083106102e15780518252601f1990920191602091820191016102c2565b6001836020036101000a038019825116818451168082178552505050505050905001915050604051809103902092506103b2848d8d8080601f0160208091040260200160405190810160405280939291908181526020018383808284378201915050505050508c8c8080601f0160208091040260200160405190810160405280939291908181526020018383808284378201915050505050508b8b8080601f016020809104026020016040519081016040528093929190818152602001838380828437508c94506104ec9350505050565b91506103e38287610100806020026040519081016040528092919082610100602002808284375061068f9350505050565b60600151156103f157600080fd5b6040805160808101825273ffffffffffffffffffffffffffffffffffffffff861681526020810184905281516120008181018452919283019189906101009083908390808284375050509183525050436020918201526000848152808252604080822080546001808201808455928552938590208651600b90920201805473ffffffffffffffffffffffffffffffffffffffff191673ffffffffffffffffffffffffffffffffffffffff9092169190911781559385015192840192909255830151929350918391906104ca9060028301906101006108a6565b50606091820151600a9091015582015195505050505050979650505050505050565b60008585858585604051602001808673ffffffffffffffffffffffffffffffffffffffff1673ffffffffffffffffffffffffffffffffffffffff166c0100000000000000000000000002815260140185805190602001908083835b602083106105665780518252601f199092019160209182019101610547565b51815160209384036101000a600019018019909216911617905287519190930192870191508083835b602083106105ae5780518252601f19909201916020918201910161058f565b51815160209384036101000a600019018019909216911617905286519190930192860191508083835b602083106105f65780518252601f1990920191602091820191016105d7565b51815160209384036101000a600019018019909216911617905292019384525060408051808503815293820190819052835193975095508594508601925081905083835b602083106106595780518252601f19909201916020918201910161063a565b5181516020939093036101000a600019018019909116921691909117905260405192018290039091209998505050505050505050565b610697610879565b6000806106a2610879565b60008681526020819052604081209350915081805b845484101561086e5784848154811015156106ce57fe5b600091825260209182902060408051608081018252600b909302909101805473ffffffffffffffffffffffffffffffffffffffff16835260018101549383019390935280516120008101825291929190830190600283016101008282826020028201916000905b82829054906101000a90047f0100000000000000000000000000000000000000000000000000000000000000027effffffffffffffffffffffffffffffffffffffffffffffffffffffffffffff19168152602001906001019060208260000104928301926001038202915080841161073557905050505050508152602001600a82015481525050925060019150600090505b61010081101561085557868161010081106107de57fe5b60200201517effffffffffffffffffffffffffffffffffffffffffffffffffffffffffffff19168360400151826101008110151561081857fe5b60200201517fff00000000000000000000000000000000000000000000000000000000000000161461084d5760009150610855565b6001016107c7565b81156108635782955061086e565b8360010193506106b7565b505050505092915050565b604080516120608101825260008082526020820152908101610899610959565b8152602001600081525090565b6008830191839082156109495791602002820160005b8382111561091a57835183826101000a81548160ff02191690837f01000000000000000000000000000000000000000000000000000000000000009004021790555092602001926001016020816000010492830192600103026108bc565b80156109475782816101000a81549060ff021916905560010160208160000104928301926001030261091a565b505b5061095592915061097a565b5090565b61200060405190810160405280610100906020820280388339509192915050565b61099891905b8082111561095557805460ff19168155600101610980565b905600a165627a7a723058201befe93990fb671ea6867d9bc5969ad0a3c16034c7058dcaed65d1197b77fe120029",
  "source": "pragma solidity ^0.4.16;\n\ncontract DeedRegistry \n{\n    struct Deed \n    {\n        address owner;\n        bytes32 identityHash;\n        byte[256] fileChecksum;         \t// checksum of the file this deed concerns\n        uint blockNumber;\n    }\n    \n    mapping(bytes32 => Deed[]) registry;    // Sha3 hash of the larger hash\n    \n    constructor() public\n    {\n    }\n\n    // Deed management ==============================================\n    \n    // Create a new deed with the given fingerprint\n    function createDeed(\n        string ownerName,\n        string fileName,\n        string fileDescription,\n        byte[256] fileChecksum) external payable returns(uint)\n    {\n        address ownerAddress = msg.sender;\n        \n        // Generate the bucket hash of the deed\n        bytes32 fileHash = keccak256(abi.encodePacked(fileChecksum));\n                \n        // Now we create an identity hash. The owner of the deed then should be able to reconstruct this hash with the same details\n        bytes32 identityHash = generateIdentityHash(ownerAddress, ownerName, fileName, fileDescription, fileHash);\n\n        // Check for any duplicates in the mapping\n        require(searchForDeed(identityHash, fileChecksum).blockNumber == 0);\n        \n        Deed memory newDeed = Deed(ownerAddress, identityHash, fileChecksum, block.number);\n        registry[identityHash].push(newDeed);\n        \n        return newDeed.blockNumber;\n    }\n\n    function generateIdentityHash(\n        address ownerAddress,\n        string ownerName,\n        string fileName,\n        string fileDescription,\n        bytes32 fileHash) internal pure returns (bytes32)\n    {\n        return keccak256(\n            abi.encodePacked(ownerAddress, ownerName, fileName, fileDescription, fileHash)\n        );\n    }\n    \n    function proveDeed(\n        address ownerAddress,\n        string ownerName,\n        string fileName,\n        string fileDescription,\n        byte[256] fileChecksum) public view returns(uint)\n    {\n        bytes32 fileHash = keccak256(abi.encodePacked(fileChecksum));\n        bytes32 identityHash = generateIdentityHash(ownerAddress, ownerName, fileName, fileDescription, fileHash);\n        return searchForDeed(identityHash, fileChecksum).blockNumber;\n    }\n    \n    function searchForDeed(bytes32 identityHash, byte[256] fileChecksum) internal view returns (Deed result)\n    {\n        Deed[] storage bucket = registry[identityHash];\n        for(uint i = 0; i < bucket.length; ++i)\n        {\n            Deed memory deed = bucket[i];\n            bool matchFound = true;\n            for(uint j = 0; j < 256; ++j)\n            {\n                if(deed.fileChecksum[j] != fileChecksum[j])\n                {\n                    matchFound = false;\n                    break;\n                }\n            }\n            if(matchFound)\n            {\n                result = deed;\n                break;\n            }\n        }\n        return result;\n    }\n}\n",
  "sourcePath": "/home/sean/Documents/Projects/indeed/contracts/DeedRegistry.sol",
  "compiler": {
    "name": "solc",
    "version": "0.4.24+commit.e67f0147.Emscripten.clang"
  },
  "schemaVersion": "2.0.0",
  "updatedAt": "2018-07-19T01:45:05.478Z"
}