{
  "contractName": "DeedRegistry",
  "abi": [
    {
      "inputs": [],
      "payable": false,
      "stateMutability": "nonpayable",
      "type": "constructor"
    },
    {
      "constant": false,
      "inputs": [
        {
          "name": "ownerAddress",
          "type": "address"
        },
        {
          "name": "ownerName",
          "type": "string"
        },
        {
          "name": "ownerDOB",
          "type": "int64"
        },
        {
          "name": "fileName",
          "type": "string"
        },
        {
          "name": "filesize",
          "type": "uint256"
        },
        {
          "name": "fileDescription",
          "type": "string"
        },
        {
          "name": "fileChecksum",
          "type": "bytes1[256]"
        }
      ],
      "name": "createDeed",
      "outputs": [
        {
          "name": "",
          "type": "bool"
        }
      ],
      "payable": true,
      "stateMutability": "payable",
      "type": "function"
    },
    {
      "constant": true,
      "inputs": [
        {
          "name": "fileChecksum",
          "type": "bytes1[256]"
        }
      ],
      "name": "deedExists",
      "outputs": [
        {
          "name": "",
          "type": "bool"
        }
      ],
      "payable": false,
      "stateMutability": "view",
      "type": "function"
    }
  ],
  "bytecode": "0x608060405234801561001057600080fd5b506107c4806100206000396000f30060806040526004361061004b5763ffffffff7c01000000000000000000000000000000000000000000000000000000006000350416637bc42bbf81146100505780639e5bcc80146100aa575b600080fd5b34801561005c57600080fd5b506040805161200081810190925261009691369160049161200491908390610100908390839080828437509396506100fc95505050505050565b604080519115158252519081900360200190f35b6100966004803573ffffffffffffffffffffffffffffffffffffffff16906024803580820192908101359160443560070b916064358083019290820135916084359160a43590810191013560c46101b4565b60008082604051602001808261010060200280838360005b8381101561012c578181015183820152602001610114565b505050509050019150506040516020818303038152906040526040518082805190602001908083835b602083106101745780518252601f199092019160209182019101610155565b6001836020036101000a038019825116818451168082178552505050505050905001915050604051809103902090506101ad81846104a9565b9392505050565b60008060006101c161067e565b604051859060200180826120008082843782019150509150506040516020818303038152906040526040518082805190602001908083835b602083106102185780518252601f1990920191602091820191016101f9565b6001836020036101000a03801982511681845116808217855250505050505090500191505060405180910390209250610276838661010080602002604051908101604052809291908261010060200280828437506104a99350505050565b1561028057600080fd5b8d8d8d8d8d8d8d8d8d8b43604051602001808c73ffffffffffffffffffffffffffffffffffffffff1673ffffffffffffffffffffffffffffffffffffffff166c010000000000000000000000000281526014018b8b8082843782019150508960070b60070b78010000000000000000000000000000000000000000000000000281526008018888808284378201915050868152602001858580828437820191505083600019166000191681526020018281526020019b5050505050505050505050506040516020818303038152906040526040518082805190602001908083835b602083106103805780518252601f199092019160209182019101610361565b6001836020036101000a038019825116818451168082178552505050505050905001915050604051809103902091506060604051908101604052808f73ffffffffffffffffffffffffffffffffffffffff16815260200183600019168152602001866101008060200260405190810160405280929190826101006020028082843750505091909252505060008481526020818152604080832080546001808201808455928652948490208651600a90920201805473ffffffffffffffffffffffffffffffffffffffff191673ffffffffffffffffffffffffffffffffffffffff909216919091178155928501519383019390935583015192935090918391906104909060028301906101006106a3565b50505050600193505050509a9950505050505050505050565b60008060006104b661067e565b600086815260208190526040812093509150815b8354831015610674576001945083838154811015156104e557fe5b600091825260209182902060408051606081018252600a909302909101805473ffffffffffffffffffffffffffffffffffffffff16835260018101549383019390935280516120008101825291929190830190600283016101008282826020028201916000905b82829054906101000a90047f0100000000000000000000000000000000000000000000000000000000000000027effffffffffffffffffffffffffffffffffffffffffffffffffffffffffffff19168152602001906001019060208260000104928301926001038202915080841161054c5790505050505050815250509150600090505b61010081101561065e57858161010081106105e757fe5b60200201517effffffffffffffffffffffffffffffffffffffffffffffffffffffffffffff19168260400151826101008110151561062157fe5b60200201517fff000000000000000000000000000000000000000000000000000000000000001614610656576000945061065e565b6001016105d0565b841561066957610674565b8260010192506104ca565b5050505092915050565b60408051612040810182526000808252602082015290810161069e610756565b905290565b6008830191839082156107465791602002820160005b8382111561071757835183826101000a81548160ff02191690837f01000000000000000000000000000000000000000000000000000000000000009004021790555092602001926001016020816000010492830192600103026106b9565b80156107445782816101000a81549060ff0219169055600101602081600001049283019260010302610717565b505b50610752929150610777565b5090565b61200060405190810160405280610100906020820280388339509192915050565b61079591905b8082111561075257805460ff1916815560010161077d565b905600a165627a7a72305820602343c5093604bd7fccc06b8242e358ec4388ce06313ec790ea1073e391a3810029",
  "source": "pragma solidity ^0.4.16;\n\ncontract DeedRegistry \n{\n    struct Deed \n    {\n        address owner;\n        bytes32 identityHash;\n        byte[256] fileChecksum;         \t// checksum of the file this deed concerns\n    }\n    \n    mapping(bytes32 => Deed[]) registry;    // Sha3 hash of the larger hash\n    \n    constructor() public\n    {\n    }\n\n    // Deed management ==============================================\n    \n    // Create a new deed with the given fingerprint\n    function createDeed(\n        address ownerAddress,\n        string ownerName, \n        int64 ownerDOB,\n        string fileName,\n        uint filesize,\n        string fileDescription,\n        byte[256] fileChecksum) external payable returns(bool)\n    {\n        // Require that the caller is an approved registrar\n        //require(registrars[msg.sender]);    \n        \n        // Generate the bucket hash of the deed\n        bytes32 fileHash = keccak256(abi.encodePacked(fileChecksum));\n        \n        // Check for any duplicates in the mapping\n        require(!duplicateHashExists(fileHash, fileChecksum));\n        \n        // Now we create an block number dependent identity hash. The owner of the deed then should be able to reconstruct\n        // the hash data from the contract call\n        bytes32 identityHash = keccak256(\n            abi.encodePacked(ownerAddress, ownerName, ownerDOB, fileName, filesize, fileDescription, fileHash, block.number)\n        );\n        \n        Deed memory newDeed = Deed(ownerAddress, identityHash, fileChecksum);\n        registry[fileHash].push(newDeed);\n        \n        return true;\n    }\n    \n    function deedExists(byte[256] fileChecksum) public view returns(bool)\n    {\n        bytes32 fileHash = keccak256(abi.encodePacked(fileChecksum));\n        return duplicateHashExists(fileHash, fileChecksum);\n    }\n    \n    function duplicateHashExists(bytes32 hash, byte[256] fileChecksum) internal view returns (bool duplicateFound)\n    {\n        Deed[] storage bucket = registry[hash];\n        for(uint i = 0; i < bucket.length; ++i)\n        {\n            duplicateFound = true;\n            Deed memory deed = bucket[i];\n            for(uint j = 0; j < 256; ++j)\n            {\n                if(deed.fileChecksum[j] != fileChecksum[j])\n                {\n                    duplicateFound = false;\n                    break;\n                }\n            }\n            if(duplicateFound)\n            {\n                break;\n            }\n        }\n        return duplicateFound;\n    }\n}\n",
  "sourcePath": "/home/sean/Documents/Projects/indeed/contracts/DeedRegistry.sol",
  "compiler": {
    "name": "solc",
    "version": "0.4.24+commit.e67f0147.Emscripten.clang"
  },
  "schemaVersion": "2.0.0",
  "updatedAt": "2018-07-18T04:12:02.941Z"
}