{
  "contractName": "TestArrays",
  "abi": [
    {
      "constant": false,
      "inputs": [
        {
          "name": "a",
          "type": "int256"
        },
        {
          "name": "b",
          "type": "int256"
        }
      ],
      "name": "push",
      "outputs": [],
      "payable": true,
      "stateMutability": "payable",
      "type": "function"
    },
    {
      "constant": true,
      "inputs": [
        {
          "name": "a",
          "type": "int256"
        }
      ],
      "name": "pull",
      "outputs": [
        {
          "name": "",
          "type": "int256"
        }
      ],
      "payable": false,
      "stateMutability": "view",
      "type": "function"
    }
  ],
  "bytecode": "0x608060405234801561001057600080fd5b5060fa8061001f6000396000f30060806040526004361060485763ffffffff7c0100000000000000000000000000000000000000000000000000000000600035041663c8e41ec58114604d578063e2854727146074575b600080fd5b348015605857600080fd5b5060626004356082565b60408051918252519081900360200190f35b608060043560243560ad565b005b6000818152602081905260408120805482908110609b57fe5b90600052602060002001549050919050565b600091825260208281526040832080546001810182559084529220909101555600a165627a7a723058200267ea10af4e89fe5bed23e034cebb3405a9fa10fba138971fb784c7d19050520029",
  "source": "pragma solidity ^0.4.4;\n\n\ncontract TestArrays {\n  mapping(int => int[]) array;\n\n  function push(int a, int b) external payable\n  {\n    array[a].push(b);\n  }\n\n  function pull(int a) external view returns(int)\n  {\n    return array[a][0];\n  }\n}\n",
  "sourcePath": "/home/sean/Documents/Projects/indeed/contracts/TestArrays.sol",
  "compiler": {
    "name": "solc",
    "version": "0.4.24+commit.e67f0147.Emscripten.clang"
  },
  "schemaVersion": "2.0.0",
  "updatedAt": "2018-07-19T03:23:51.379Z"
}